:0A0000000C94D1000C943B030C9407
:10000A0000000C9400000C9400000C9400000C9466
:10001A0000000C9400000C9400000C9400000C9456
:10002A0000000C9400000C9400000C9400000C9446
:10003A003C030C9400000C9400000C9400000C94F7
:10004A000D010C9400000C9400000C9400000C9418
:10005A0000000C9400000C9400000C940000763D03
:10006A00000000021027E80364000A0001000010E3
:10007A0000011000010044313A204F70656E202FB4
:10008A002044323A204F70656E0044313A204F7056
:10009A00656E202F2044323A2053686F727465646B
:1000AA000044313A2053686F72746564202F2044EB
:1000BA00323A204F70656E0044313A2053686F72AD
:1000CA00746564202F2044323A2053686F72746535
:1000DA0064000A0D00444950535749544348455354
:1000EA003A203030303030202000444950535749AC
:1000FA0054434845533A20313030303020200044B0
:10010A00495053574954434845533A2030313030C7
:10011A003020200044495053574954434845533AE4
:10012A002030303130302020004449505357495450
:10013A00434845533A20303030313020200044497A
:10014A005053574954434845533A203030303031A0
:10015A0020200044495053574954434845533A20B4
:10016A00494E56414C4944202000414E312F414EC0
:10017A00322F414E332F414E343A2025642F2564C5
:10018A002F25642F256420202000040034026800F3
:10019A0002000B006C000000F894EE27EFBBF1E0C0
:1001AA00F5BFE5BFF8E1A895A4B7A77FA4BFF09370
:1001BA006000E09360008DE0A2E0BB27ED938A9592
:1001CA00E9F780E094E0A0E0B1E0ED930197E9F768
:1001DA00E4E9F1E085919591009761F0A591B591D7
:1001EA0005901590BF01F00105900D920197E1F776
:1001FA00FB01F0CFE0E0EEBBE0E0EABDE0E0EBBD02
:10020A00EFEFEDBFE4E0EEBFC0E0D2E00C940E02E7
:10021A00AA93BA93EA93EFB7EA931A930A930091CF
:10022A00C0001091C600E02FEC7181F4A22DB0E05D
:10023A00A050BE4F1C932394E8E0E21509F422244F
:10024A004394E8E0E41511F44424F09A09911991D1
:10025A00E991EFBFE991B991A99118950A934420C0
:10026A00F1F3E32DF0E0E050FE4F00813394E8E033
:10027A00E31509F43324F8944A947894E02F099109
:10028A000895ECE3F0E0FA93EA93E1E0F0E0FA9300
:10029A00EA93EC81FD81FA93EA9302D022960895BB
:1002AA000E946105EAEAE0930802EE81FF81319635
:1002BA00E0930902E885E0930A0220E030E0EE814B
:1002CA00FF812E173F07ACF4F901E55FFD4FBF012F
:1002DA00AC81BD81E0E0F1E00E944405DB01EC93D2
:1002EA00EC81FD810E942C05EC83FD832F5F3F4F3B
:1002FA00E6CFEE81FF81E55FFD4FFF93EF934DD38C
:10030A003396FA93EA932CD0AF91BF91EC9345D3ED
:10031A003496FA93EA933ED0ECE1F2E0FA93EA9348
:10032A00EDB7FEB73197FA93EA931F930F93E2E082
:10033A00F0E0FA93EA9346D00F911F91A0911C0224
:10034A00A13421F4E0911D02E13409F003C0E1E097
:10035A00F0E002C0E0E0F0E00E9468052A96089505
:10036A000E94620500E011E020E0EB81FC811E178B
:10037A002F075CF4E12FF22FAD81BE81AE0FBF1FB4
:10038A00EC910E0F1F5F2F4FF0CFE02F0E946905EF
:10039A00279608951A930A9300E010E0EA81FB81F8
:1003AA000E171F075CF4F801AC81BD81AE0FBF1FA9
:1003BA00EC91EA9394D10F5F1F4FF0CF1981088116
:1003CA00269608951A930A93AC81BD81E0E0F0E085
:1003DA00ED93FC9300E010E0EA81FB810E171F0702
:1003EA00A4F4F801AE81BF81EA0FFB1FFF93EF93DC
:1003FA0035DFAF91BF91EC93AC81BD81ED91FD9159
:10040A00AC83BD830F5F1F4FE7CF19810881289600
:10041A000895E0E8E0936100E0E0E0936100E1E044
:10042A00E5B9E6E0E4B9E0E3E8B9E8E0E7B9E1EB29
:10043A00EBB9E0E4EAB9E2E0E4BDE5BDE0E0E6BD3F
:10044A00E9EFE7BDE0E0E8BDE2EAE0938000E9E138
:10045A00E0938100E0E0E0938500E0938400E0937C
:10046A008700E0938600E0938900E0938800E09398
:10047A008B00E0938A00E093B600E093B000E0932B
:10048A00B100E093B200E093B300E093B400E1E07E
:10049A00E0936900EDBBECBBE0E0E0936800E2E0CA
:1004AA00E0936E00E0E0E0936F00E0937000E09369
:1004BA00C000E8E9E093C100E6E0E093C200E0E0B2
:1004CA00E093C500EAE0E093C400E0E8E0BFE0E0C2
:1004DA00E0937B00E0937E00E0E4E0937C00E7E8B1
:1004EA00E0937A005524662477248824E0E0E09398
:1004FA00800078943C9AE0E0E4BDE5BDE0936E00AC
:10050A0043985E9AE4EFF1E0FA93EA93BADE439AEB
:10051A005E98ECEBF2E0FA93EA93B3DEF1CFFFCF09
:10052A000A93E0E04A99E1E0EE0FAE2FE0E0189975
:10053A00E1E03AD2E33041F4E0E8F0E0FA93EA93FA
:10054A0080E00BD222961DC0E23041F4E4E9F0E0EB
:10055A00FA93EA9380E001D2229613C0E13041F483
:10056A00EBEAF0E0FA93EA9380E0F7D1229609C029
:10057A00E03039F4E2ECF0E0FA93EA9380E0EDD16E
:10058A002296ECEDF0E0FA93EA9380E0E6D1229627
:10059A005BC00A93E0E03499E1E0E295E07FAE2F98
:1005AA00E0E03599E1E0EE0FEE0FEE0FEA2BAE2F09
:1005BA00E0E04C99E1E0EE0FEE0FEA2BAE2FE0E01F
:1005CA004D99E1E0EE0FEA2BAE2FE0E04F99E1E022
:1005DA00EBD1E095EF710E2FE02FE03031F4EFED23
:1005EA00F0E0FA93EA9380E02DC0E03131F4E4EFD1
:1005FA00F0E0FA93EA9380E025C0E83031F4E9E0CC
:10060A00F1E0FA93EA9380E01DC0E43031F4EEE1C0
:10061A00F1E0FA93EA9380E015C0E23031F4E3E3C3
:10062A00F1E0FA93EA9380E00DC0E13031F4E8E4B6
:10063A00F1E0FA93EA9380E005C0EDE5F1E0FA9380
:10064A00EA9380E08AD1229609910895E4E7F1E0DD
:10065A00FA93EA93E0E0ACD1E1E0AAD1E2E0A8D1D2
:10066A00E7E0A6D180E179D16296089518956A9358
:10067A007A93EA93FA93EFB7EA93E0913002F09112
:10068A0031026091320270913302EF5FFF4F6F4F78
:10069A007F4FE0933002F0933102609332027093FD
:1006AA003302E991EFBFF991E9917991699118952E
:1006BA00E881E064E0937C00E0917A00E064E093F2
:1006CA007A00E0917A00E071E1F3E0917A00E0616A
:1006DA00E0937A00E0917800F091790007C0E09108
:1006EA00C000E072E1F3E881E093C6002196089524
:1006FA00A881B9810E945205309749F00E9452059B
:10070A003196ED93FC933197AA81A08303C0EA81C5
:10071A00EA93E5DF2396089526970E945F0500E095
:10072A00E889F9893196E88BF98B3197E4913E2F64
:10073A00E03011F40C94AE04E02FE03031F435329D
:10074A0011F401E001C03BD103C1E130A9F4353213
:10075A0019F435D100E0FCC002E050E010E03D326F
:10076A0011F411E0F5C03B3211F45BE2F1C0303212
:10077A0011F450E2EDC002C0E23039F440E003E087
:10078A00303311F41068E4C004C0E33011F00C9463
:10079A00AD04303310F03A3308F009C0A42FEAE070
:1007AA00EA9FE02D4E2FE32FE0534E0FD1C0E32FE7
:1007BA00E33621F40AD1EC910FD1C9C0E33731F401
:1007CA0004D110D10E9403050E2F08C0E03751F45E
:1007DA00FCD008D10E940D050E2F186012601F77F9
:1007EA0020E036C0E43611F0E93611F4146002C094
:1007FA00E53731F4EEE6F0E0EE83FF8305E00DC065
:10080A00E83511F4186004C0E83711F00C94AC0410
:10081A00E8E7F0E0EE83FF8304E012FF14C0D5D0CE
:10082A000E945205EA87FB87AA85BB8510972CF49C
:10083A000E942805EA87FB875DE2503011F00F5FBE
:10084A0001C01B7F05C0C1D00E945205EA87FB8701
:10085A0010FD10C0041770F417FF08C012FF04C07F
:10086A001B7F352F015001C030E301C030E2A7D011
:10087A004150F0CF202F11FF19C02030B1F013FFE3
:10088A0008C0EE81FF813196EE83FF833197E491B0
:10089A0005C0AE81BF81ED91AE83BF83EA93A9D033
:1008AA00403009F041502150E8CF49C030E3EE8191
:1008BA00FF813296EE83FF8332970E945605E887BE
:1008CA00F987E885F985AA85BB85AE17BF0750F079
:1008DA003F5FA885B985EA85FB85EA1BFB0BEA879A
:1008EA00FB87EFCF3A3328F013FF02C0395F01C00C
:1008FA00395D14FD1AC0313320F4A885B9851197E2
:10090A0011F410610AC0421710F010FF01C011C0A3
:10091A0030E217FF0AC030E3106112FF06C01B7FE6
:10092A005A9367D0403009F0415049D0403009F01D
:10093A0041502150A885B985129708F0B7CF10FF0A
:10094A0006C0403021F04150E0E246D0FACF00E044
:10095A00E7CE0E94660562960895FF92F82E2297C6
:10096A001A930A93DE010E9424058D01E0E0EA83CE
:10097A00EB83DE0114960E9424050E945205FA9325
:10098A00EA931A930A93FE013696FA93EA93C4DE1F
:10099A00198108812496FF900895E8E0F2E0FA931D
:1009AA00EA93E885F9850895EA2B0E2FE02F08953A
:1009BA00EA937EDE662777270E945A0508953A93BE
:1009CA00ED85FE85FA93EA9393CEAE85BF8514979B
:1009DA00AE87BF8714960895EA93ED85FE85FA934C
:1009EA00EA9386CE0E945205EE83FF83FA93EA9336
:1009FA000895ED85FE85FA93EA937ACEA991B99185
:100A0A00EE27FF276D91662311F03196FBCF0895EB
:100A1A00AA27BB27E991F9910590002011F01196B8
:100A2A00FBCFFD010895E991F991309639F088E8F4
:100A3A0093E10197F1F7A8953197C9F70895002432
:100A4A00AF0DB01D0895E095F09531960895EF2FFA
:100A5A00FF27E7FDFFEF08950024112490E1AA0F74
:100A6A00BB1F001C111C0E1A1F0A18F40E0E1F1EA3
:100A7A0001C0A1609A9599F7FD01D0010895E89403
:100A8A00B7FF04C0A095B09511966894F7FDDBDF17
:100A9A00E3DFFD010EF4D7DF0895ED91FC91119784
:100AAA0008950590F491E02D08957A936A93FA9344
:100ABA00EA9308955A934A933A932A931A930A9374
:100ACA0008955D814C813B812A81198108810895AD
:00000001FF
